:020000040800F2
:10000000E8890020E10100087F0500087705000865
:100010007B05000893030008030C000800000000A3
:10002000000000000000000000000000490100087E
:1000300057040008000000008D0100086D0800084A
:10004000FB010008FB010008FB010008FB010008A0
:10005000FB010008FB010008FB010008FB01000890
:10006000FB010008FB010008FB010008FB01000880
:10007000FB010008FB010008FB010008FB01000870
:1000800099030008FB010008FB010008FB010008C0
:10009000FB010008FB010008FB010008FB01000850
:1000A000FB010008FB010008FB010008FB01000840
:1000B000FB010008FB010008FB010008FB01000830
:1000C000FB010008FB010008FB010008FB01000820
:1000D000FB010008FB01000801090008FB01000802
:1000E000FB010008FB010008FB010008FB01000800
:1000F000FB010008FB010008FB010008FB010008F0
:10010000FB010008FB010008FB010008FB010008DF
:10011000FB010008FB010008FB010008FB010008CF
:10012000FB010008FB010008FB010008FB010008BF
:10013000DFF810D000F0FCF800480047D16A000852
:10014000AFF30080E8890020224B19680868B0E806
:10015000F00F80F30988BFF36F8F4FF0000080F33A
:1001600011884EF00D0E7047000000000648006830
:10017000006880F3088862B661B6BFF34F8FBFF3A3
:100180006F8F00DF00BF00BF08ED00E0EFF30980D4
:10019000BFF36F8F0F4B1A6820E9F00F106008B59E
:1001A0004FF0500080F31188BFF34F8FBFF36F8F74
:1001B00008F0D6F94FF0000080F31188BDE8084040
:1001C00019680868B0E8F00F80F30988BFF36F8FF3
:1001D000704700BF28000020EFF305807047000043
:1001E0000648804706480047FEE7FEE7FEE7FEE7D1
:1001F000FEE7FEE7FEE7FEE7FEE7FEE7A1080008F0
:100200003101000840EA01039B0703D009E008C957
:10021000121F08C0042AFAD203E011F8013B00F8CB
:10022000013B521EF9D27047D2B201E000F8012B17
:10023000491EFBD270470022F6E710B513460A4666
:1002400004461946FFF7F0FF204610BD30B50546BD
:100250002A460B4612F8010B13F8014B08B1A042D5
:10026000F8D01CB1002802D06D1CF1E7284630BD43
:10027000CAB2401E10F8011F8A4202D00029F9D1EB
:1002800000207047421C10F8011B0029FBD1801A86
:10029000704710B5002200E0521C835C8C5CA342C6
:1002A00001D1002BF8D1D8B2E1B2401A10BD30B55F
:1002B00005460020034600E05B1C934205D2EC5C3F
:1002C000C85C201A01D1002CF6D130BD2DE9F05FB9
:1002D0000546002092469B468846064681464024B5
:1002E0001BE0284641464746224600F042F8534666
:1002F0005A46C01A914110D311461846224600F0C2
:1003000029F82D1A67EB01084F46224601200021EB
:1003100000F020F817EB00094E41201EA4F1010463
:10032000DFDC484631462A464346BDE8F09F0000E0
:10033000064C074D06E0E06840F0010394E8070032
:1003400098471034AC42F6D3FFF7F6FE88970008C2
:10035000A8970008202A04DB203A00FA02F10020C6
:1003600070479140C2F1200320FA03F319439040F3
:100370007047202A04DB203A21FA02F0002170475E
:1003800021FA02F3D040C2F12002914008431946FD
:10039000704700BFFEE7000008B54FF4001000F002
:1003A00015F84FF4800000F011F80748006848B1D4
:1003B0000120009000231A4669460348006808F0AF
:1003C00019FB00BF08BD0000F400002000F08051C0
:1003D00011B10349086001E002494860704700001C
:1003E000040402400000024021B1026842F0010210
:1003F000026004E002684FF6FE731A400260704724
:100400000146486880B270471AB103680B43036025
:1004100002E003688B430360704710B50022026856
:1004200047F6F0739A430C6A8B6823430C692343A5
:100430004C6923438C692343CC6923434C6A23438F
:100440008C6A23431A430260CB6843600B68836065
:100450004B68C36010BD70472DE9F041024600258E
:100460000026002000230024002791F803C00CF090
:100470000F0591F803C00CF0100CBCF1000F03D075
:1004800091F802C04CEA050591F800C0BCF1000FDC
:1004900031D0146800202BE04FF0010C0CFA00F36F
:1004A000B1F800C00CEA03069E4220D183004FF051
:1004B0000F0C0CFA03F7BC4305FA03FC4CEA0404E6
:1004C00091F803C0BCF1280F06D14FF0010C0CFAD3
:1004D00000FCC2F814C00AE091F803C0BCF1480F58
:1004E00005D14FF0010C0CFA00FCC2F810C0401C02
:1004F0000828D1D31460B1F800C0BCF1FF0F34DD7F
:10050000546800202EE000F1080C4FF0010808FAB2
:100510000CF3B1F800C00CEA03069E4221D183001F
:100520004FF00F0C0CFA03F7BC4305FA03FC4CEA3E
:10053000040491F803C0BCF1280F05D100F1080CA8
:1005400008FA0CF8C2F8148091F803C0BCF1480F07
:1005500007D100F1080C4FF0010808FA0CF8C2F8B6
:100560001080401C0828CED35460BDE8F081416162
:1005700070470161704700BFFEE700BFFEE77047AC
:1005800010B54FF4407000F039F810BD70B500217F
:1005900000230F22C47804B3154C246804F4E064EB
:1005A000C4F5E064210AC1F10403CA40447804FAA6
:1005B00003F184781440214309010E4C0678A155BB
:1005C000047804F01F050124AC4005786D11AD00DE
:1005D00005F1E025C5F8004109E0047804F01F05A5
:1005E0000124AC40044D0678761145F8264070BDD4
:1005F0000CED00E000E400E080E100E0024901438E
:10060000024A1160704700000000FA050CED00E09E
:1006100029B1064A52690243044B5A6104E0034A75
:1006200052698243014B5A6170470000001002403A
:1006300029B1064AD2690243044BDA6104E0034A55
:10064000D2698243014BDA6170470000001002401A
:1006500029B1064A12690243044B1A6104E0034AB5
:1006600012698243014B1A6170470000001002407A
:1006700029B1064A92690243044B9A6104E0034A95
:1006800092698243014B9A6170470000001002405A
:1006900029B1064AD2680243044BDA6004E0034AF7
:1006A000D2688243014BDA607047000000100240BC
:1006B00030B500210022002400232D4D6D6805F087
:1006C0000C0121B1042905D0082923D105E0294DC9
:1006D000056022E0274D05601FE0254D6D6805F49B
:1006E0007012234D6D6805F48034022505EB9242AB
:1006F0001CB9214D554305600BE01D4D6D6805F497
:1007000000351DB11C4D5543056002E0194D5543A0
:10071000056002E0174D056000BF00BF144D6D6815
:1007200005F0F0010909154D6B5C0568DD40456079
:100730000F4D6D6805F4E061090A104D6B5C45686A
:10074000DD4085600A4D6D6805F46051C90A0B4DA6
:100750006B5C4568DD40C560054D6D6805F4404142
:10076000890B074D6B5CC568B5FBF3F5056130BDC2
:100770000010024000127A0000093D001400002021
:100780002400002010B500F001F810BD0CB50020C9
:10079000019000903348006840F48030314908608F
:1007A00000BF3048006800F4003000900198401C01
:1007B0000190009818B90198B0F5A06FF1D12948BF
:1007C000006800F4003010B10120009001E000202A
:1007D00000900098012843D12348006840F01000A1
:1007E000214908600846006820F0070008600846B4
:1007F000006840F0020008601A48406819494860E3
:100800000846406848600846406840F48060486098
:100810000846406820F47C1048600846406840F470
:10082000E81048600846006840F08070086000BF2B
:100830000C48006800F000700028F9D009484068B2
:1008400020F00300074948600846406840F0020075
:10085000486000BF0348406800F00C000828F9D148
:100860000CBD0000001002400020024010B500BF87
:10087000502080F31188BFF34F8FBFF36F8F00BFFD
:1008800008F0AEFB18B14FF080500449086000BF7B
:10089000002080F3118800BF10BD000004ED00E0CF
:1008A00010B51348006840F001001149086008467F
:1008B0004068104908400E494860084600680E49E3
:1008C00008400B4908600846006820F48020086052
:1008D0000846406820F4FE0048604FF41F0088601E
:1008E000FFF750FF4FF000600449086010BD0000A2
:1008F000001002400000FFF8FFFFF6FE08ED00E0E8
:1009000008B52821164800F02FF84FF4B0711448AC
:1009100000F02AF84FF45871114800F025F84FF410
:1009200018710F4800F020F840F224410C4800F004
:10093000A4F838B10A4800F05BF940F224410848B5
:1009400000F01BF80748006848B101200090002320
:100950001A4669460348006808F04CF800BF08BD15
:1009600000440040F400002001F40072B2F5007F62
:1009700000D100BFCA430280704710B50022002397
:1009800040F66A14A14200D100BF0A12012494402B
:10099000A3B2DC43048010BD21B1828942F400522D
:1009A000828104E082894DF6FF731A40828170478C
:1009B0001AB1838A0B43838202E0838A8B4383824A
:1009C0007047000010B504462048844209D1012137
:1009D0008803FFF75DFE00214FF48040FFF758FECB
:1009E00032E01B48844209D101214804FFF730FE60
:1009F00000214FF40030FFF72BFE25E0154884421C
:100A000009D101218804FFF723FE00214FF4802043
:100A1000FFF71EFE18E01048844209D10121C804E6
:100A2000FFF716FE00214FF40020FFF711FE0BE048
:100A30000A48844208D101210805FFF709FE002178
:100A40004FF48010FFF704FE10BD00000038014095
:100A50000044004000480040004C0040005000406E
:100A600002460020B1F5007F00D100BF13880B4083
:100A70000BB1012000E00020704770B50246002451
:100A800000230025002040F66A16B14200D100BFC5
:100A9000C1F3421501F01F03012606FA03F3012DED
:100AA00002D19689334006E0022D02D1168A3340E6
:100AB00001E0968A33400C12012606FA04F41688E7
:100AC000344013B10CB1012000E0002070BDF0B53E
:100AD0000346002400260025002040F66A17B9428C
:100AE00000D100BF1846C1F3421401F01F060127D0
:100AF00007FA06F5012C01D10C3004E0022C01D1DB
:100B0000103000E014301AB107682F43076002E08C
:100B10000768AF430760F0BD2DE9F04786B0054692
:100B20000E460024A24600BFA1460027B08900B1AE
:100B300000BF2F462C8A4CF6FF700440F088044317
:100B40002C82AC894EF6F3100440B08831890843FA
:100B5000718908430443AC81AC8A4FF6FF400440DE
:100B6000B0890443AC8201A8FFF7A2FD1F48874269
:100B700002D1DDF810A001E0DDF80CA0A88900F496
:100B8000004040B10AEBCA0000EB0A10316849008E
:100B9000B0FBF1F807E00AEBCA0000EB0A1031687D
:100BA0008900B0FBF1F86420B8FBF0F004012009E3
:100BB000642101FB1089A88900F4004040B1322073
:100BC00000EBC900B0FBF1F000F00700044308E0BF
:100BD000322000EB09106421B0FBF1F000F00F00AF
:100BE00004432C8106B0BDE8F087000000380140C6
:100BF00001468888C0F308007047C1F3080282806C
:100C0000704700BFFEE700000FB4054B10B503A905
:100C1000044A029800F018F810BC5DF814FB0000BC
:100C2000B91700080001002002E008C8121F08C11F
:100C3000002AFAD170477047002001E001C1121F5D
:100C4000002AFBD1704700002DE9FF4F8DB00F4601
:100C50000546002606E025280BD0DDE90F12904757
:100C60006D1C761C28780028F5D111B03046BDE8FF
:100C7000F08F0024A246A1460122E94900E0044386
:100C800015F8013F203B02FA03F00842F7D128781B
:100C90002A2810D06FF02F022878A0F130010929FE
:100CA00014D80AEB8A0102EB410144F0020400EB84
:100CB000010A6D1CF0E701CF5FEA000A03D544F496
:100CC0000054CAF1000A44F002046D1C28782E2852
:100CD00017D115F8010F44F004042A280ED06FF044
:100CE0002F022878A0F1300109290AD809EB8901DF
:100CF00002EB410100EB01096D1CF2E757F8049B80
:100D00006D1C28786C280FD006DC4C2817D068287A
:100D10000DD06A2814D104E0742810D07A280FD19D
:100D20000DE044F400140AE044F4801401E044F4BB
:100D300040146978814202D104F580146D1C6D1C49
:100D400028786E281ED00CDC632830D004DC002804
:100D50008BD0582811D19FE0642867D069280CD126
:100D600064E073282DD004DC6F2872D0702804D181
:100D700094E075286ED078286DD0DDE90F12904789
:100D8000761C4BE1C4F30250022806D0032809D098
:100D9000042801CF09D0066040E101CFF117C0E976
:100DA00000613BE101CF068038E1067036E117F8BB
:100DB000040B8DF8000000208DF80100EB460120A7
:100DC00003E057F804BB4FF0FF3061074FF000011C
:100DD00002D40DE008F10101884649450FDA80454B
:100DE000F8DB1BF808100029F4D108E008F1010134
:100DF00088468142FADB1BF808100029F6D1DDE9AC
:100E00000F23AAEB08008146214600F031F9304457
:100E100000EB080604E0DDE90F121BF8010B904718
:100E2000B8F10108F7D221464846F2E00A21C4F39E
:100E300002524FF0000B0891022A04D001CFC117D3
:100E4000032A09D00AE0FF1D27F00707F7E802018F
:100E500008E02CE01EE01FE000B2C117042A01D117
:100E600040B2C117021E71F1000206DA0023D0EB76
:100E7000030063EB01012D2202E0220504D52B22A1
:100E80008DF82420012203E0E20701D02022F7E7B9
:100E9000904653E00A210BE0102109E010214FF0A9
:100EA000000B44F004044FF00809089103E0082106
:100EB0004FF0000B0891C4F30252022A04D001CF74
:100EC0000021032A06D006E0FF1D27F00707F7E8F8
:100ED000020103E080B2042A00D1C0B24FF0000842
:100EE00022072BD52A78702A07D0DDF820C08CF095
:100EF000100C5CEA0B0C05D00EE040228DF824208B
:100F0000012208E050EA010306D030238DF8243096
:100F10008DF8252002229046089B83F0080353EAAF
:100F20000B030BD150EA010201D1620706D5302232
:100F30008DF824204FF00108A9F101092A78582AD8
:100F400004D038A20B9208AA0A920BE03AA2F9E761
:100F50005B46089AFFF7BAF90B9B9B5C0A9A521EF4
:100F60000A92137050EA0102F2D10A98ADEB000028
:100F700000F1200B600702D524F4803401E04FF02B
:100F80000109D94502DDA9EB0B0000E0002000EBD0
:100F90000B0141440890AAEB010AE00306D4DDE905
:100FA0000F232146504600F063F806444FF0000935
:100FB00008E009A911F80900DDE90F12904709F1CD
:100FC0000109761CC145F4DBE0030CD5DDE90F23F4
:100FD0002146504600F04CF8064404E0DDE90F12CB
:100FE00030209047761C0899481E08900029F5DCAF
:100FF00008E00A980A990078491C0A91DDE90F1265
:101000009047761CBBF10001ABF1010BF1DC2146EE
:101010005046DDE90F2300F019F806446D1C21E667
:1010200009280100303132333435363738396162BE
:101030006364656600000000303132333435363782
:101040003839414243444546000000002DE9F04153
:10105000044600251E461746880404D405E0394698
:101060002020B0476D1C641EF9D52846BDE8F081EC
:101070002DE9F041044600251E469046C80301D5DF
:10108000302700E02027880404D505E04146384693
:10109000B0476D1C641EF9D52846BDE8F0810000FC
:1010A0001FB504460020039002907A48007800287B
:1010B0007ED101214804FFF7BBFA01210846FFF762
:1010C000A7FA01210520FFF7D3FA01210520FFF738
:1010D000CFFA01210420FFF7CBFA00200390102063
:1010E0008DF80F00ADF80C0003208DF80E0003A959
:1010F0006948FFF7B1F918208DF80F000420ADF80A
:101100000C0003208DF80E0003A96348FFF7A4F933
:1011100004208DF80F000820ADF80C0003A95E48EC
:10112000FFF79AF95D48FFF74DFC5D480460002029
:101130005B498880C880088188810C204881574895
:10114000FFF7EAFC012240F224415448FFF7BFFCBC
:10115000012228215148FFF7BAFC012260214F48A3
:10116000FFF7B5FC012240214C48FFF721FC00208D
:10117000029026208DF8080007208DF80900002035
:101180008DF80A0001208DF80B0002A8FFF7FEF988
:101190000020444908704148001D43490860434805
:1011A0004860002088604FF48050C860002000E054
:1011B00041E008618020486100208861C8612020EA
:1011C0000862C0014862002088623948FFF725F9AB
:1011D000012204213648FFF717F901220221344881
:1011E000FFF712F9012208213148FFF70DF900201D
:1011F000029010208DF8080006208DF809000020CC
:101200008DF80A0001208DF80B0002A8FFF7BEF947
:101210000020284908600120224908700121244843
:10122000FFF7E2F801211D48FFF7B6FB40211B48FC
:10123000FFF716FC14E0642006F0C4FF00211748F5
:10124000FFF7AAFB1648046001461448FFF764FC48
:1012500001211248FFF7A0FB40211048FFF700FCD6
:101260001548006830B9002204210A2007F04DFA21
:10127000114908601148006850B910480A2100233C
:101280004FF48062CDE900100DA1114807F058FE1F
:101290001FBD0000E900002000080140004400409C
:1012A00058680020E8000020686800205858002096
:1012B0006C000240EC000020F4000020F000002050
:1012C00075736172745F6C6C5F74687265616400E1
:1012D000497D00082DE9F05F0546894692461E4685
:1012E000DDE90A7800BF15B90320BDE8F09F00BF13
:1012F00000BF0EB90320F8E700BF00BF0FB90320FD
:10130000F3E700BF00BF4FF0000B00F001FD95F8C0
:101310002800C0F3C00020B995F8280000F00100B3
:1013200008B94FF0070B00F0FFFCBBF1000F01D034
:101330005846DAE700BF2878012806D100BFB7F584
:10134000006F01D90320D0E700BFB8F1000F02D031
:101350000020C8F8000000BF4C2000F02AFF04461F
:101360000CB90420C1E74C212046FEF764FF0D981C
:1013700008B1012000E00020207200BF2D20207065
:101380002562E6626762C4F84480C4F83C90A4F821
:1013900040A00C9884F84200284601F092FD84F8A1
:1013A00048004EF660220249204605F007F99CE706
:1013B0003130000870B50446254695F8280000F045
:1013C000010060B10C20064981F828000846C5627A
:1013D0000021284605F026F8284601F07DFD70BD65
:1013E000405600202DE9FE43064600BF01F042FAB8
:1013F00010B10020BDE8FE834DA0FFF705FC0120E1
:1014000000210091514B6422CDE901105049002088
:1014100001F078FA071E7BD18046002414E004EB2B
:1014200004104B4D05EB4000B0F9163004EB0410EE
:1014300005EB4000827F04EB041005EB4000411CEB
:1014400044A0FFF7E1FB641C404800688442E6D3F7
:10145000002453E000254CE005EB05113C4A02EB6B
:101460004101481CFEF70EFF8146434A52F83410F2
:1014700005EB0512364B03EB4202501C4A46FEF7C1
:1014800016FF002834D14FF001083B4850F83410C3
:101490003AA0FFF7B9FB01200021374A02EBC40252
:1014A000CDE900105168344A52F8340000231A463E
:1014B00001F0F2F9071E17D12F4850F8341037A069
:1014C000FFF7A2FB6B460022114601A801F066F966
:1014D00038A201A938A006F07FFC9DF800103CA0BE
:1014E000FFF792FB002085E739463DA0FFF78CFB14
:1014F0006D1C164800688542AED3641C002CA9D030
:10150000B8F1000F0DD13C48FFF77EFB09E0FFE783
:10151000102F03D139A0FFF777FB05E03EA0FFF7BE
:1015200073FB06B900E061E700BF022062E700003C
:101530005363616E6E696E672061636365737320C8
:10154000706F696E74732E2E2E0D0A00FC00002041
:1015500094780020415020666F756E643A202573A0
:101560002C2043483A2025642C20525353493A20DA
:1015700025640D0A0000000038960008436F6E6E67
:10158000656374696E6720746F2022257322206E54
:101590006574776F726B2E2E2E0D0A00436F6E6E80
:1015A000656374656420746F202573206E6574779D
:1015B0006F726B210D0A000053746174696F6E20A5
:1015C000495020616464726573733A200000000022
:1015D0003B20497320444843503A2025640D0A00BB
:1015E000436F6E6E656374696F6E206572726F72A1
:1015F0003A2025640D0A00007C960008446576694F
:101600006365206973206E6F742070726573656EF8
:1016100074210D0A000000004572726F72206F6E17
:101620002057494649207363616E2070726F63656D
:1016300064757265210D0A0038B505460C46012116
:101640000520FFF715F801218803FFF711F818208E
:101650008DF803004FF40070ADF8000003208DF802
:10166000020069460C48FEF7F7FE04208DF80300DF
:101670000002ADF8000069460748FEF7EDFE21467E
:101680000648FFF749FA01210448FFF785F9402190
:101690000248FFF7E5F938BD000801400038014075
:1016A00010B54FF4E1300649086000208880C880FA
:1016B000088188810C2048810248FFF7BDFF10BDDA
:1016C00004010020003801407FB50446002500F0E9
:1016D0001FFBC4B1A069B0B1206A60B10021012232
:1016E000206A8DE8070003910A462046A369FFF7A8
:1016F000F1FD054600E002251DB104F1180000F0DF
:101700004CFD0020A06100F00FFB284604B070BD26
:101710007CB504460D460DB100F0FAFA04F1140050
:1017200001F08CF9E8B10DE0A06910B1A069401E8C
:10173000A061019830B11E490198884202D00198F9
:1017400000F038FF01A904F1140001F063F900284A
:10175000EAD104F1140001F02CF904F1140001F0B5
:1017600068F904F1100001F069F9E0B10CE00098AB
:1017700050B10F490098884206D00E49009888421F
:1017800002D0009800F022FD694604F1100001F03B
:1017900041F90028EBD104F1100001F00AF904F13D
:1017A000100001F046F90DB100F0BEFA7CBD00005A
:1017B000A4000020A500002070B504460D46E1B24B
:1017C0000548FFF71AFA00BF40210348FFF748F920
:1017D0000028F9D0204670BD0038014010B50B48F4
:1017E000006810B94FF0FF3010BD01F065F90849ED
:1017F0000968441A054800684068A04201D80020E2
:10180000F2E7024800684068001BEDE7E0000020B6
:10181000E40000200DA0FFF7F7F90121114800F0C6
:101820003BFB18B110A0FFF7EFF902E015A0FFF79E
:10183000EBF909E001F02CF810B90120FFF7D2FD17
:101840004FF47A7006F0BEFCF4E70000496E69744C
:1018500069616C697A696E67204C774553500D0A4F
:10186000000000009D18000843616E6E6F742069CF
:101870006E697469616C697A65204C7745535021B3
:101880000D0A00004C7745535020696E69746961F8
:101890006C697A6564210D0A000000001CB50446DD
:1018A000204600F0AFFA06280AD004DC00282AD02F
:1018B000012843D12BE00F283CD012283ED12AE04A
:1018C00000BF02208DF804008DF8050001208DF87E
:1018D000060000BF684600F0D5FA1AA0FFF794F999
:1018E0009DF806309DF805209DF8041024A0FFF710
:1018F0008BF99DF802309DF801209DF800102BA077
:10190000FFF782F91BE032A0FFF77EF917E036A05F
:10191000FFF77AF913E000F0BBFF50B137204FF426
:1019200000710023374ACDE9001037A1184601F0B5
:1019300029F904E038A0FFF767F900E000BF00BF15
:1019400000201CBD43757272656E7420455350387B
:101950003236362041542076657273696F6E206985
:1019600073206E6F7420737570706F72746564206D
:101970006279206C696272617279210D0A0000003F
:101980004D696E696D756D207265717569726564FA
:101990002041542076657273696F6E2069733A2016
:1019A00025642E25642E25640D0A0000437572728D
:1019B000656E742041542076657273696F6E20697C
:1019C000733A2025642E25642E25640D0A0000003C
:1019D0004C69627261727920696E697469616C69BF
:1019E0007A6564210D0A000044657669636520729A
:1019F00065736574206465746563746564210D0A9C
:101A000000000000696D00086E6574636F6E6E5FA4
:101A1000636C69656E740000537563636573736608
:101A2000756C6C79206A6F696E65642041500D0A8F
:101A3000000000002DE9F04104460E4600BF14B935
:101A40000320BDE8F08100BF00BF4FF0000800F0A8
:101A50005FF994F82800C0F3C00020B994F828007A
:101A600000F0010008B94FF0070800F05DF9B8F187
:101A7000000F01D04046E4E700BF00BF4C2000F05B
:101A800098FB05460DB90420DBE74C212846FEF7FC
:101A9000D2FB0EB1012000E00020287200BF2E20F2
:101AA00028702C62204601F00CFA2421485520466B
:101AB000FFF70AFE4FF47A720949284604F07EFDCA
:101AC00007465FB956B900F023F994F8280020F0D2
:101AD0000800083084F8280000F026F93846B0E7FE
:101AE0003130000870B5044600F012F9256900F0A5
:101AF0001BF9284670BD10B504462078C01F062883
:101B000018D2DFE800F00B0F03170713204600F090
:101B100067F910BD204600F066F9FAE7204600F0AC
:101B20006BF9F6E7204600F06AF9F2E7204600F08C
:101B30005DF9EEE70020ECE770B5044600255CB1E6
:101B4000204602F0C3FB38B100F0E2F894F8280018
:101B500000F0010500F0E8F8284670BD70B50446B5
:101B60000025ACB1204602F0B1FB88B100F0D0F8FE
:101B700094F8280000F0010030B194F82800C0F378
:101B8000400008B1012000E00020054600F0CCF83C
:101B9000284670BD70B504460025ACB1204602F061
:101BA00095FB88B100F0B4F894F8280000F001002B
:101BB00030B194F82800C0F3400008B9012000E0DB
:101BC0000020054600F0B0F8284670BD024600200F
:101BD00070472DE9FF5F04460F4615469946DDF82C
:101BE00038B0B84600BF1CB9032004B0BDE8F09F70
:101BF00000BF00BF0FB90320F7E700BF00BF0DB95A
:101C00000320F2E700BF00F083F8A069C0B1D4E977
:101C10000710081AA84201D9284602E0D4E90710A3
:101C2000081A06465EB1A269216A5018324641463A
:101C3000FEF7E8FA206A81192162B044AD1B00BFAB
:101C400000F072F82046FFF73FFD82465DB10020AC
:101C5000434602460146CDE9020BCDE90059204634
:101C6000FFF738FB82465046BFE770B504460D4685
:101C700000F04EF8256100F057F8002070BD00001C
:101C80002DE9F05F0746884615461E46DDE90B9BA9
:101C9000DDF828A000BF15B90320BDE8F09F00BF04
:101CA00000BF002E01DC0320F7E700BF00BFB9F141
:101CB000000F01D10320F0E700BF00BF4C2000F06F
:101CC00078FA04460CB90420E7E74C212046FEF7D9
:101CD000B2FABBF1000F01D0012000E00020207219
:101CE00000BF2C20207001F003F96070276284F897
:101CF0002A8065622685C4F83C90C4F838A04EF668
:101D000060220249204604F059FCC6E73130000841
:101D100010B500F0D5FE03480068401C014908607A
:101D2000002010BD4056002010B504480068401E39
:101D30000249086000F044FF002010BD405600201A
:101D400038B504460CB9012038BD0021684600F0C2
:101D5000BFFE58B12146684600F0F3FE684600F029
:101D6000E3FE684600F0CCFE0120EDE70020EBE743
:101D700010B5FFF7CDFF044890F89001C0F3400480
:101D8000FFF7D2FF204610BD4056002010B5044694
:101D9000204600F037F805280BD0112816D10D4841
:101DA000006828B10C490B480068103000F05FFE55
:101DB0000DE00848006840B1FFF7DAFF28B907498D
:101DC00004480068103000F052FE00BF00BF00BFA2
:101DD000002010BDA8000020A4000020A5000020C5
:101DE00001464868704701464868704701464868A0
:101DF0007047014688687047014648687047014649
:101E0000486870470146087870470000F8B50546F5
:101E1000002600BF0DB90320F8BD00BFFFF778FF13
:101E20001748C46B05E06068A84201D1022602E0B1
:101E30002468002CF7D100BFF6B9082000F0B9F9EA
:101E400000900098B8B100210098016041600098AE
:101E500045600B48C46B00E0246814B1206800287A
:101E6000FAD11CB100982060002605E0684600F019
:101E700094F9042600E00426FFF756FF3046CBE72E
:101E8000405600200146034802880A808078887006
:101E900001207047855600207CB505460C4600267B
:101EA0004FF4CA716F48FEF7C6F96E4890F890017A
:101EB00020F001006B4981F890010DB1284600E047
:101EC00069486A49486008466649C8630020086452
:101ED00000F050FD00B99CE001216248001D00F0B7
:101EE000F7FD00B995E010215E48083000F052FD82
:101EF00000B98EE010215B480C3000F04BFD00B9BA
:101F000087E000215748001D00F01BFE37204FF4EA
:101F10008061544B1B1D564ACDE9001055A103F1B9
:101F20000C0000F02FFE20B94E48001D00F0FCFD13
:101F30006FE000214B48001D00F003FE37204FF4F6
:101F40008061484B1B1D4F4ACDE900104EA103F1A3
:101F5000100000F017FE40B94248103000F029FE92
:101F60004048001D00F0E0FD53E000213D48001D09
:101F700000F0E7FD3B48001D00F0D6FDFFF7C8FE6E
:101F80004FF4E13137480162183000F0BDF83548B0
:101F900090F8900120F00100401C324981F8900136
:101FA000084690F8900120F00200801C81F8900112
:101FB000002004F025FA00F08DFF2A4890F89001E7
:101FC000C0F3400048B1FFF7AFFE224600210846AB
:101FD00000F07AFB0646FFF79BFE224890F890013E
:101FE000C0F3400058B1FFF79FFE23460022114680
:101FF0004FF47A7000F03CFB0646FFF789FEFFF7CE
:1020000093FE002224494FF47A7000F087FE304698
:102010007CBD1448083000F011FD38B1114808307B
:1020200000F0C7FC0F48083000F003FD0D480C30ED
:1020300000F004FD38B10B480C3000F0BAFC094840
:102040000C3000F0F6FC0748001D00F065FD38B1CB
:102050000448001D00F054FD0248001D00F057FD2B
:102060000420D5E740560020A57A0008B4000020DF
:10207000FD2B00086C776573705F70726F64756319
:1020800065000000D12B00086C776573705F70727B
:102090006F63657373000000AD7A000870B5054684
:1020A0000C4600260E4890F8900100F0010008B997
:1020B000022070BD0B48006820440A4908600A48A5
:1020C0000068401C0849086044B1FFF721FE214622
:1020D000284603F0FFFB0646FFF726FE3046E8E7FA
:1020E00040560020BC000020C0000020014609B975
:1020F00000207047087920B90878002801DD012008
:10210000F7E70020F5E700001CB504460C4903C9B9
:10211000CDE900010B48007818B90121684600F0AC
:1021200017F80848007818B9074820600748606029
:10213000A068FEF7B5FF01200249087000201CBD11
:1021400030960008E9000020117D0008F17C0008AD
:1021500070B504460D462946204604F03FFD06466C
:10216000304670BD70B504460D46FFF7D1FD2946D7
:10217000204604F091FD0646FFF7D6FD304670BDBF
:1021800010B5044604B910BDFFF7C2FD204604F0A7
:1021900095FDFFF7C9FD00BFF5E710B5044634B162
:1021A0002068FFF7EDFF00202060012010BD002017
:1021B000FCE770B50446FFF7ABFD2146012004F0B3
:1021C0006BFD0546FFF7B0FD284670BD70B50446AF
:1021D00000BF0CB9032070BD00BF00BFE06808B9A4
:1021E0000320F8E700BF00BFE068FFF7A5FC08B9CF
:1021F0000320F0E700BF204600F088F8E5680020E3
:10220000E06000212846FFF730FD01212846FFF756
:1022100011FC01212046FFF77BFA0020DBE70000DC
:10222000FEB504460D46164600BF0CB90320FEBDA0
:1022300000BF00BF0DB90320F9E700BF00BF002EAB
:1022400001DC0320F3E700BF01200649CDE900418E
:102250000290217933462A460020FFF711FD0746F8
:102260003846E4E7596F000801B584B000BF049810
:1022700010B9032005B000BD00BFFFF749FD0021E4
:102280000498FFF745FA1F4904980968884213D15A
:1022900000201C490860FFF747FD01200021009144
:1022A0000191CDE902100498C18800231A4618460E
:1022B00000F034FAFFF72CFD1349049809688842AE
:1022C00005D11148006800680F49086013E00E4806
:1022D000006880B10C4A11681268106807E0049A1F
:1022E000824202D102680A6003E0014600680028C9
:1022F000F5D100BF00BFFFF717FD04A8FFF74DFFA2
:102300000020B7E7A8000020AC00002038B5044644
:1023100000BF0CB9032038BD00BF00BF207920B139
:102320002079022801D00320F5E700BF00BFE06854
:10233000FFF702FC08B90320EDE700BFE06968B1D0
:10234000606A38B1012000900023626AE169E068A8
:10235000FFF73FFC04F11C00FFF71FFF0020DAE746
:1023600038B50446FFF7D4FC2C48007828B100208B
:102370002A4908702A48FFF749FDFFF7D5FC3021AC
:102380000120FFF7EFFE0090009820B30098047141
:1023900000200099088505210098103000F0FAFA15
:1023A00000B91AE008210098143000F0F3FA00B9DF
:1023B00013E0FFF7ADFC1B48006818B919490098F5
:1023C000086006E017480068009908601549009801
:1023D0000860FFF7A9FC009838BD0098103000F0A5
:1023E0002DFB38B10098103000F0E3FA009810305F
:1023F00000F01FFB0098143000F020FB38B100986B
:10240000143000F0D6FA0098143000F012FB009857
:1024100010B16846FFF7C1FE0020DDE7B0000020E4
:102420008D1D0008AC00002070B504460D4600BFAD
:102430000CB9032070BD00BF00BF0DB90320F9E740
:1024400000BF00202860E06A401C38B9294604F12A
:10245000140000F0DFFA58B90520EBE7294604F133
:102460001400E26A00F0B2FA401C08B90520E1E766
:10247000FFF74EFCA06910B1A069401EA061FFF7F4
:1024800053FC05492868884203D1002028600720B2
:10249000D0E70020CEE70000A40000202DE9FC4793
:1024A000044689461546C84600BF14B90320BDE856
:1024B000FC8700BF00BF207920B12079022801D01D
:1024C0000320F4E700BF00BFE068FFF735FB08B961
:1024D0000320ECE700BFE06900282DD0D4E9081004
:1024E000081AA84203D2D4E90810081A00E02846C6
:1024F00006465EB1E269616A501832464946FDF708
:1025000081FEB044606A81196162AD1BD4E90801A3
:1025100081420FD10120009001ABD4E90712E0689D
:10252000FFF757FB074604F11C00FFF736FE1FB10B
:102530003846BCE70020BAE7B5F5006F13D3C5F302
:102540000A0A0120A5EB0A02009001AB4146E068AF
:10255000FFF73FFB07460FB13846A8E701988044D4
:1025600001982D1A00BF0DB90020A0E7E06948B915
:102570004FF40060FFF71DFEE0614FF4006121623F
:1025800000216162E06950B1E269616A50182A462F
:102590004146FDF737FE606A4119616208E001209B
:1025A000009000232A464946E068FFF712FB7EE7C9
:1025B00000207CE7F8B5044600BF0CB90320F8BD45
:1025C00000BF0025009412E0FFF7A2FB0098C0684E
:1025D000471E0098C760FFF7A7FB3FB90098066841
:1025E0006846FFF7DAFD00966D1C00E002E00098F7
:1025F0000028E9D100BF2846E1E7024622B109B12F
:10260000506870479068FCE70020FAE770B505460F
:1026100005F11C00FFF7CDFD044644B10020206009
:102620006560A56004F11C0020610120E060204687
:1026300070BD014600BF09B90320704700BFC868DC
:10264000401CC8600020F8E728B121B10B68436145
:102650000B7903764283704770B504460D461646E3
:1026600033462A462146002000F002F870BD0000E3
:102670002DE9F04105460E461746984600BF4C200E
:10268000FFF797FD044614B90420BDE8F0814C2102
:102690002046FDF7D0FDB8F1000F01D0012000E089
:1026A0000020207200BF00BFA661E76100BF0120CB
:1026B0002070256241F288320249204603F07EFFF5
:1026C000E3E70000313000082DE9F04105460E46F1
:1026D000174600BF4C20FFF76CFD044614B90420D8
:1026E000BDE8F0814C212046FDF7A5FD0FB101208A
:1026F00000E00020207200BF00BFA561E66100BFBE
:10270000062020700120607041F288320249204684
:1027100003F054FFE4E70000313000082DE9F05FDA
:1027200005460E4617469846DDE90BABDDF82890C6
:1027300000BF002E02DC0320BDE8F09F00BF00BFF9
:102740004C20FFF736FD04460CB90420F4E74C2179
:102750002046FDF770FD0D9808B1012000E0002033
:10276000207200BF00BFC4F818A0C4F81CB000BF9E
:10277000332020700DB13420607084F820506684BE
:10278000A784A4F82680C4F828904FF47A720249EE
:10279000204603F013FFCFE7313000082DE9F04168
:1027A00004460D4616461F464FF0020814B90DB9EF
:1027B00006B92FB300F05EF810B3FFF7A9FA34B1F1
:1027C0001148D0F86011216090F86401207135B192
:1027D0000D48D0F86511296090F86901287136B16B
:1027E0000948D0F86A11316090F86E0130711FB15C
:1027F000054890F8750138704FF00008FFF794FA1B
:102800004046BDE8F0810000405600202DE9F04729
:1028100005460E4617469846DDE9089A00BF4C204B
:10282000FFF7C7FC044614B90420BDE8F0874C212B
:102830002046FDF700FDBAF1000F01D0012000E0B5
:102840000020207200BF00BFC4F81880C4F81C909C
:1028500000BF1B2020701F20607025626662A76287
:102860004FF47A720249204603F0A8FEDDE700002B
:102870003130000810B5FFF74BFA044890F87601A4
:1028800000F00104FFF750FA204610BD405600202A
:1028900010B5FFF7EFFF10BD2DE9F04705460E46D6
:1028A00017469846DDE9089A00BF15B90320BDE830
:1028B000F08700BF00BF4C20FFF77BFC04460CB93B
:1028C0000420F4E74C212046FDF7B5FCBAF1000FD7
:1028D00001D0012000E00020207200BF00BFC4F83A
:1028E0001880C4F81C9000BF142020702562666216
:1028F000A76247F230520249204603F05FFED6E756
:10290000313000082DE9F05F06460F4690461D461F
:10291000DDE90BABDDF828900DB10020286000BF89
:102920004C20FFF746FC044614B90420BDE8F09F94
:102930004C212046FDF77FFCBBF1000F01D00120A8
:1029400000E00020207200BF00BFC4F81890C4F857
:102950001CA000BF1820207026626762C4F828807F
:10296000256347F230520249204603F027FEDDE797
:102970003130000810B5012005F0B6FE04490860AA
:102980000846006808B1012010BD0020FCE70000E7
:10299000F800002070B504460D46002204212846A8
:1029A00005F0B3FE2060206808B1012070BD002052
:1029B000FCE710B50446206805F044FA08B1002091
:1029C00010BD206805F09EFB0120F9E72DE9F843D2
:1029D00005460E46144606F0FDFA074614B94FF0B8
:1029E000FF3006E04FF47A7060434FF47A71B0FB29
:1029F000F1F0804642466946286806F0B3F830B1E7
:102A00000098306006F0E6FAC01BBDE8F8834FF08E
:102A1000FF30FAE738B504460D46002269462068C3
:102A200006F0A0F818B100982860012038BD0020F9
:102A3000FCE701460020086001207047014619B1FB
:102A4000086808B1012070470020FCE7F8B504468B
:102A50000D4606F0BFFA0646009500235A1E694649
:102A6000206805F0F3FE06F0B5FA801BF8BD38B516
:102A700004460D46009500231A466946206805F075
:102A8000B9FF012800D138BD0020FCE710B504468D
:102A90004FF0FF31206806F0E3F9012800D110BDA6
:102AA0000020FCE710B50446206806F037F801283E
:102AB00000D110BD0020FCE710B506F08BFA10BD68
:102AC00010B50248FFF7E2FF012010BDF80000201A
:102AD00070B504460D4603220021012005F015FEC5
:102AE0002060206830B12DB100231A4619462068B5
:102AF00005F0ACFE206808B1012070BD0020FCE7A5
:102B000010B50446206805F0FDFA012010BD01460D
:102B10000020086001207047014619B1086808B11B
:102B2000012070470020FCE710B5044600231A4638
:102B30001946206805F08AFE012800D110BD00204A
:102B4000FCE72DE9F04105460C4606F043FA06463F
:102B500014B94FF0FF3006E04FF47A7060434FF441
:102B60007A71B0FBF1F007463946286806F0AEF8F6
:102B7000012804D106F02EFA801BBDE8F0814FF049
:102B8000FF30FAE72DE9FC4704460E4615461F467E
:102B9000DDE90A893B46C8F38F0231462846CDE974
:102BA000009406F0CDF9012801D1BDE8FC87002092
:102BB000FBE710B50446206805F032FB012010BD8C
:102BC00010B50248FFF76EFF012010BDF80000208D
:102BD00008B504462546084E2846FFF79DFF10B16C
:102BE0002846FFF7A1FF06E00022694606F10C0027
:102BF00000F08AF900BFF7E74056002008B5064606
:102C0000B046454D4046FFF787FF10B14046FFF7FD
:102C10008BFFFFF77DF87EE0FFF786F800BF00220C
:102C2000694605F10800FFF7D1FE0746781C002829
:102C3000F5D000980028F2D0FFF76AF80024009839
:102C4000686295F89001C0F3400000B910246CB997
:102C500000980078012809D10098006A18B10099FD
:102C6000086AFFF76DF8012003F086FB34BB00987B
:102C7000406918B3FFF758F80021281DFFF761FFDE
:102C8000FFF746F80098416988470446002764B971
:102C9000FFF74AF80098C168281DFFF752FF074662
:102CA000FFF736F8781C00B90524052C02D1042062
:102CB00003F0A6FB281DFFF737FF01E004B902244B
:102CC0002CB12146009803F061F800980474009834
:102CD000806920B1009B187CD3E9062190470098B9
:102CE000007A20B10098001DFFF71EFF11E000BF21
:102CF0000098001DFFF710FF38B10098001DFFF786
:102D0000FFFE0098001DFFF702FF6846FFF745FA37
:102D100000BF002068627FE7405600202DE9F041A7
:102D200005460F46904600BF17B90320BDE8F08165
:102D300000BF10210120FFF715FA04460CB902204C
:102D4000F4E7FEF7E5FFFFF7B7FE06462A480068FE
:102D500018B12A480068301A05446560C4F8088034
:102D6000E7602548006820B92348046023480660CE
:102D700039E0214800684068616888420CD91E48E3
:102D800000684068401B1C49096848601A48006890
:102D900020601948046026E01749086820E061684F
:102DA0004268891A6160016821B1016849686268F6
:102DB000914214D9016831B1016849686268891A81
:102DC0000268516007E06168A94204D90A490968AC
:102DD00049682944616001682160046002E000687C
:102DE0000028DCD100BFFEF79FFF00210448FFF759
:102DF0003EFE00209AE70000E0000020E4000020F2
:102E00004C5600202DE9F04104460D4616461F465B
:102E10002A4600213020107014B9481CC1B225E0A8
:102E2000AEB111E004F00F000A2804DA00F1300C12
:102E300002F801C003E000F1370C02F801C02409D8
:102E400001F1010C0CF0FF01002CEBD10EE00BE0C6
:102E50000A20B4FBF0FC00FB1C40303050540A2028
:102E6000B4FBF0F4481CC1B2002CF1D136B103E040
:102E700030205054481CC1B2B942F9DB00205054F4
:102E8000002313E0A1EB030CACF1010C15F80C00CE
:102E900012F80380A1EB030CACF1010C05F80C80D7
:102EA000D05403F1010C0CF0FF0300BF481C00EBF1
:102EB000D07CB3EB6C0FE5DB002068542846BDE8FE
:102EC000F08170B50446FEF723FF257DFEF72CFF49
:102ED000284670BD7047000010B5044622460349DD
:102EE0004FF4FA70FFF71AFF10BD0000B513000889
:102EF000044991F8441009B92A2100E02B21084621
:102F000070470000405600202DE9F04105460E466E
:102F1000174600BF0F48006830B93A463146284688
:102F2000FFF754FDBDE8F081FEF758FC044634B1CC
:102F3000224631462846FFF749FD401C28B9FEF7D6
:102F4000E7FE04F0A1F8FEF7EFFE00BF00BF204649
:102F5000E8E70000E000002030B504460020334DD3
:102F60006D6A1DB1314D6D6A6D7800E00025112D3F
:102F700038D010DC042D29D006DC012D1CD0022D08
:102F80001FD0032D4ED11DE0062D16D00F2D21D0C0
:102F9000102D47D122E0262D3CD006DC132D2DD05C
:102FA0001F2D23D0242D3DD138E02A2D2AD02B2DC2
:102FB0002CD0322D36D11DE000BF00BF032000BF52
:102FC00031E000BF00BF042000BF2CE000BF0F2095
:102FD00000BF28E000BF102000BF24E000BF112088
:102FE00000BF20E000BF1F2000BF1CE000BF322058
:102FF00000BF18E000BF132000BF14E000BF2A206C
:1030000000BF10E000BF2B2000BF0CE000BF262057
:1030100000BF08E000BF242000BF04E000BF38204C
:1030200000BF00E000BF00BF30BD000040560020E0
:1030300001B582B0FE48406A18B1FD48406A407848
:1030400000E00020392881F03A81DFE810F03809EB
:1030500039009700B800D900380976003C013809DA
:10306000380938093809380938093809FA001B01C4
:103070000B0347036B018C01C7013D026002830211
:10308000B30399046A03FC03B9020E05EB04380983
:103090003809B2055B05B4039A046B03FD03D5053B
:1030A000F805E20709081007DF079D077608A00862
:1030B000380953082D0673063809DA06E802300885
:1030C000DB48C069B8B1DA48C069019001200199B4
:1030D000884780B14FF4E131D54801621830FFF7DD
:1030E00013F80A20FEF72CFED148C0690190002099
:1030F000019988471FE000BFCD48806902210190F7
:10310000CCA0019A904700BFC94880690421019072
:10311000C9A0019A904700BFC5488069022101906B
:10312000C7A0019A9047C2488069002101900846D3
:10313000019A904700BF01F0C4B800BFBC48806945
:1031400002210190BBA0019A904700BFB848806956
:1031500008210190BBA0019A904700BFB448806944
:1031600002210190B6A0019A9047B14880690021E0
:1031700001900846019A904700BFDCE700BFAC48C9
:10318000806902210190ABA0019A904700BFA84836
:10319000806902210190AEA0019A904700BFA44827
:1031A000806902210190A6A0019A9047A0488069F9
:1031B000002101900846019A904700BFBBE700BF7D
:1031C0009B488069022101909AA0019A904700BF14
:1031D00097488069022101909EA0019A904700BF04
:1031E000934880690221019095A0019A90479048E8
:1031F0008069002101900846019A904700BF9AE734
:1032000000BF8B488069022101908AA0019A9047F3
:1032100000BF87488069042101908FA0019A9047E0
:1032200000BF834880690221019085A0019A9047E0
:103230007F488069002101900846019A904700BFAD
:1032400079E700BF7A4880690221019079A0019A4C
:10325000904700BF764880690921019080A0019ABB
:10326000904700BF724880690221019074A0019AC2
:1032700090476F488069002101900846019A904765
:1032800000BF58E700BF6A4880690221019069A029
:10329000019A904700BF664880690921019073A098
:1032A000019A904700BF624880690221019064A0A2
:1032B000019A90475E488069002101900846019A72
:1032C000904700BF37E700BF59488069022101904D
:1032D00058A0019A904700BF554880690A21019083
:1032E00065A0019A90470298006A00221146019059
:1032F00003F006FA4E4880690821019061A0019A06
:10330000904700BF4A488069022101904CA0019A71
:10331000904747488069002101900846019A9047EC
:1033200000BF08E700BF424880690221019041A028
:10333000019A904700BF3E4880691121019054A036
:10334000019A904700BF3A488069022101903CA051
:10335000019A904736488069002101900846019AF9
:10336000904700BFE7E600BF314880690221019025
:1033700030A0019A904700BF2D4880690721019035
:1033800048A0019A90470298006A00230122114642
:10339000019003F01BFA0298406A01231A4619466D
:1033A000019003F013FA0298806A30B10298806AA3
:1033B00001221146019003F0BBF800BF1C48806950
:1033C000022101901EA0019A9047194880690021AE
:1033D00001900846019A904700BFACE600BF144830
:1033E00080690221019013A0019A904700BF104804
:1033F00080690D2101902DA0019A90470298008CC0
:1034000000221146019003F07BF90298408C0122C2
:103410000021019003F074F900BF05488069022182
:10342000019007A0019A904701488069002145E07A
:1034300040560020415400002B525354000000001D
:103440000D0A00002B524553544F52450000000016
:1034500045300000453100002B474D520000000070
:103460002B5359534D53473D330000002B535953B1
:103470004C4F473D310000002B554152545F43559E
:10348000523D00002C382C312C302C300000000034
:103490002B43574C41504F50543D312C30783746D8
:1034A000460000002B43574A41503D002B435752E2
:1034B00045434F4E4E4346473D00000001900846AD
:1034C000019A904700BF36E600BFFE48806902219E
:1034D0000190AFF2A000019A904700BFF9488069BF
:1034E00007210190F8A0019A904700BFF548806934
:1034F00002210190AFF2B800019A9047F14880692B
:10350000002101900846019A904700BF13E600BFD2
:10351000EC48806902210190AFF2E800019A9047DF
:1035200000BFE848806906210190E9A0019A904710
:1035300000BFE448806902210190AFF2FC00019ACB
:103540009047E0488069002101900846019A904721
:1035500000BFF0E500BFDB48806902210190AFF2B7
:103560002C10019A904700BFD6488069062101902F
:10357000D9A0019A90470298006A78B1D148806931
:1035800001210190AFF2D000019A90470298006AA1
:10359000002301221146019003F018F900BFC94829
:1035A000806902210190AFF26810019A9047C548E6
:1035B0008069002101900846019A904700BFBAE552
:1035C00000BFC048806902210190AFF29810019AB3
:1035D000904700BFBB4880690C210190C0A0019AB0
:1035E0009047029890F8200008B1012000E00020E8
:1035F00000221146019003F083F800BFB1488069B2
:1036000002210190AFF2C810019A9047AD4880693D
:10361000002101900846019A904700BF8BE500BF4A
:10362000A848806902210190AFF2F810019A9047F2
:1036300000BFA448806909210190ADA0019A90477C
:1036400000BFA048806902210190AFF20C20019ACE
:1036500090479C488069002101900846019A904754
:1036600000BF68E59748406A20B19648406A0078F4
:10367000112802D00320019003E0029890F8200066
:10368000019000BF8F48806902210090AFF25C205A
:10369000009A904700BF8B4880690821009097A04E
:1036A000009A904700221146019803F029F8012260
:1036B0000021104603F024F800BF824880690221EF
:1036C0000090AFF28420009A90477E4880690021E4
:1036D00000900846009A904700BF2CE500BF79484B
:1036E000806902210190AFF2B420019A904700BF97
:1036F000744880690821019083A0019A904700BF17
:103700007048806902210190AFF2CC20019A904765
:103710006C488069002101900846019A904700BFDB
:1037200009E500BF00BF6748806902210190AFF240
:10373000FC20019A904700BF6248806904210190F3
:1037400074A0019A90475F48406A58B15D48406A4A
:1037500040781B2806D15B488069032101906FA047
:10376000019A90475748406A58B15648406A407895
:10377000262806D1534880690221019055A0019A5C
:103780009047504880690121019065A0019A9047B7
:1037900000BF4C48806902210190AFF25C30019A71
:1037A000904748488069002101900846019A904757
:1037B00000BFC0E400BF00BF424880690221019001
:1037C000AFF29030019A904700BF3E4880690421D3
:1037D000019050A0019A90473A48406A58B1394840
:1037E000406A4078192806D1364880690321019043
:1037F0004AA0019A90473348406A58B13148406A1C
:103800004078242806D12F4880690221019031A0F8
:10381000019A90472B4880690421019041A0019AA8
:10382000904700BF2748806902210190AFF2F03035
:10383000019A904723488069002101900846019A27
:10384000904700BF77E400BF00BF1E488069022197
:103850000190AFF22040019A904700BF194880695B
:10386000042101902BA0019A90471648406A58B154
:103870001448406A40781C2806D112488069032108
:10388000019026A0019A90470E48406A58B10D4811
:10389000406A4078272806D10A48806902210190B1
:1038A0000CA0019A90470748806901210190AFF26E
:1038B000F830019A9047002201210298203002F04E
:1038C000EDFD33E0405600202B43574A41503F0066
:1038D0002B435751415000002B43574C415000009F
:1038E0002B43574155544F434F4E4E3D000000006F
:1038F0002B43495550444154450000002B43574D3C
:103900004F44453D000000002B43574D4F44453F79
:10391000000000002B4349500000000053544100B8
:103920003F0000004D41433F000000000298253059
:10393000FEF7DCFB002811DD01221146029825303C
:1039400002F0ACFD02982A30FEF7D0FB002805DD1E
:103950000122114602982A3002F0A0FD00BFFD4866
:10396000806902210190AFF22850019A9047F948EE
:103970008069002101900846019A904700BF1DE42C
:1039800000BF00BFF348806902210190AFF25C5094
:10399000019A904700BFEF48806904210190AFF27F
:1039A0008C00019A9047EB48406A60B1E948406A50
:1039B00040781A2807D1E748806903210190AFF2C7
:1039C000A400019A9047E348406A60B1E148406A28
:1039D0004078252807D1DF48806902210190AFF2A5
:1039E0000C10019A9047DB48806904210190DAA00D
:1039F000019A9047002201210298203002F098FDA0
:103A000000BFD448806902210190AFF2CC50019AE6
:103A10009047D0488069002101900846019A90475C
:103A200000BF0DE400BFCB48806902210190AFF2D6
:103A3000FC50019A904700BFC64880690821019058
:103A4000C7A0019A904700BFC24880690221019037
:103A5000AFF21460019A9047BE488069002101903E
:103A60000846019A904700BF0BE40020019002989D
:103A700090F82000002801DD012000E000200199DD
:103A800008430190029890F82100002801DD0220EF
:103A900000E0002001990843019000BFAD48806913
:103AA00002210090AFF27460009A904700BFA948CD
:103AB000806908210090ADA0009A9047029890F884
:103AC0002200002801DD012000E000200022114634
:103AD000009002F015FE01220021019802F010FE74
:103AE00000BF9C48806902210090AFF2AC60009A50
:103AF000904798488069002100900846009A9047B6
:103B000000BFDEE300BF9348806902210190AFF25D
:103B1000DC60019A904700BF8E48806907210190C0
:103B200095A0019A90470298006A0023012211464D
:103B3000019002F04BFE0298406A01231A46194692
:103B4000019002F043FE029890F829000122002122
:103B5000019002F0D5FD029890F828000122002182
:103B6000019002F0CDFD029890F82A000122002178
:103B7000019002F0C5FD029890F82B0008B10120D9
:103B800000E0002001220021019002F0B9FD00BFF9
:103B90007048806902210190AFF25C70019A9047F1
:103BA0006C488069002101900846019A904700BF47
:103BB00087E300BF6748806902210190AFF28C70F3
:103BC000019A904700BF63488069072101906CA06B
:103BD000019A904700BF5F48806902210190AFF2CF
:103BE000A070019A90475B488069002101900846C7
:103BF000019A904700BF64E300BF564880690221E4
:103C00000190AFF2D070019A904700BF514880698F
:103C1000062101905CA0019A904700BF4D48806941
:103C200002210190AFF2E870019A904749488069FB
:103C3000002101900846019A904700BF41E300BF70
:103C40004448806902210190AFF61800019A90471C
:103C500000BF40488069062101904DA0019A90471D
:103C6000029890F8200068B13A48806901210190DB
:103C7000AFF2BC70019A90470022012102982130D6
:103C800002F056FC00BF3348806902210190AFF674
:103C90005000019A90472F48806900210190084602
:103CA000019A904700BF0CE300BF2A4880690221B7
:103CB0000190AFF68000019A904700BF25488069C7
:103CC0000B21019034A0019A90472248406AC0B16C
:103CD0002048406A0078332813D1029890F82000D9
:103CE00078B11C48806901210190AFF67800019AF3
:103CF00090470298408C01220021019002F032FD91
:103D000006E0144880690121019026A0019A90479D
:103D100000BF1048806902210190AFF6DC00019AD3
:103D200090470C488069002101900846019A90470D
:103D300000BFC6E20748406A58B10648406A0078AA
:103D4000332834D10298808C05282DDA0298808C93
:103D50002BE02CE0405600204D41433D0000000088
:103D60002B4357444843503F000000002B43574427
:103D70004843503D000000002B43575341503D0045
:103D80002B43575341503F002B43574C49460000AB
:103D90002B435751494600002B4349505345525637
:103DA00045523D00300000000520019001E0052053
:103DB000019000BFFE48806902210090AFF68C1090
:103DC000009A904700BFFA48806912210090F9A03C
:103DD000009A904700221146019802F091FC00BF22
:103DE000F348806902210090AFF6AC10009A90472A
:103DF000EF488069002100900846009A904700BF74
:103E00005FE2EB48406A40B1E948406A00783328F5
:103E100003D10298C08C019001E06420019000BFA2
:103E2000E348806902210090AFF6F810009A9047AD
:103E300000BFDF48806908210090E3A0009A904706
:103E400000221146019802F05BFC00BFD84880694F
:103E500002210090AFF61820009A9047D44880695C
:103E6000002100900846009A904700BF29E2FEF723
:103E700001FD28B90921029802F0ECFA09200EBDD3
:103E800000BFCB48806902210090AFF65820009A0D
:103E9000904700BFC64880690C210090CDA0009AD1
:103EA0009047029890F82A00022802D1CDA00190F4
:103EB00010E0029890F82A0010B9CBA0019009E018
:103EC000029890F82A00012802D1C8A0019001E0D0
:103ED000C7A00190002301221946019802F076FC48
:103EE0000298406A01231A460021009002F06EFCFD
:103EF0000298008D01220021009002F033FC02980C
:103F000090F82A00012807D00298008E0122002193
:103F1000009002F0F5FB1AE00298808E002807DD81
:103F20000298808E01220021009002F01BFC06E026
:103F30009F48806901210090AFA0009A90470298A5
:103F400090F8320001220021009002F0D9FB029883
:103F5000C06A38B10298C06A01231A460021009055
:103F600002F034FC00BF9248806902210090AFF655
:103F70003030009A90478E488069002100900846B2
:103F8000009A904700BF9CE10298006A0190019856
:103F900060B10198FDF7D0FD30B10198017D029824
:103FA00090F82400814201D0022068E700BF8048D9
:103FB000806902210090AFF68430009A904700BFDC
:103FC0007B4880690A2100908CA0009A9047029853
:103FD000006A18B10298006A407800E005200022CB
:103FE0001146009002F08CFB00BF714880690221ED
:103FF0000090AFF6B430009A90476D488069002178
:1040000000900846009A904700BF5AE102F084FCF5
:1040100035E76748C16C01650021C16400BF806954
:1040200002210190AFF6F430019A904700BF60483A
:1040300080690A21019074A0019A904700BF5C48F2
:10404000806902210190AFF60840019A90475848D4
:104050008069002101900846019A904700BF30E135
:104060005348C16C01650021C16400BF8069022111
:104070000190AFF64040019A904700BF4C488069DC
:104080000A21019063A0019A904700BF48488069C7
:1040900002210190AFF65840019A90474448806948
:1040A000002101900846019A904700BF09E100BF36
:1040B0003F48806902210190AFF68840019A9047FD
:1040C00000BF3B4880690B21019055A0019A9047A1
:1040D00000BF3748806902210190AFF69C40019AE9
:1040E000904733488069002101900846019A904723
:1040F00000BFE6E000BF2E48806902210190AFF6C4
:10410000CC40019A904700BF29488069092101905D
:1041100046A0019A904700BF25488069022101907E
:10412000AFF6E440019A9047214880690021019050
:104130000846019A904700BFC3E000BF1C48806951
:1041400002210190AFF61450019A904700BF184821
:1041500080690C21019038A0019A90470298006A6A
:1041600000221146019002F0CBFA00BF104880698E
:1041700002210190AFF63850019A90470C488069AF
:10418000002101900846019A904700BF99E000BFC6
:104190000748806902210190AFF66850019A904764
:1041A00000BF034880690D21019027A0019A53E0C8
:1041B000405600202B4349505345525645524D41DD
:1041C00058434F4E4E3D00002B43495053544F3DF2
:1041D000000000002B434950535441525445583D70
:1041E0000000000053534C0054435000554450000D
:1041F000756E6B6E6F6E77002C0000002B4349507C
:10420000434C4F53453D00002B43495053544154B8
:10421000555300002B43495053544154453F00002F
:104220002B43495044494E464F3D31002B434950A2
:104230004D55583D310000002B43495053534C53CA
:10424000495A453D000000002B43495053534C430D
:10425000434F4E463D0000009047029890F82000E2
:1042600000221146019002F04BFA029890F82100CA
:1042700001220021019002F043FA029890F82200F6
:1042800001220021019002F03BFA029890F82300ED
:1042900001220021019002F033FA00BF0A48806930
:1042A00002210190AFF66860019A90470648806944
:1042B000002101900846019A904700BF01E00220CA
:1042C000DDE500BF0020DAE540560020024600216F
:1042D0000BE001EB410000EBC103064800EB83005B
:1042E000904201D101207047491C0529F1D30020DB
:1042F000F9E70000C456002013B582B00C466946A9
:1043000002A800F053FB0648C0F82CD00CB11621CF
:1043100000E01721084602F073F8012004B010BD38
:104320004056002001B584B002A904A800F03EFB6D
:10433000694604A800F045FA02A90548C162C0F820
:1043400030D0182002F05CF8012005B000BD00005C
:104350004056002013B50C46684600F06CFB2070F8
:104360000098401C0090684600F065FB6070009863
:10437000401C0090684600F05EFBA07001201CBD50
:1043800011B500BF684600F056FBC4B22848C16CA6
:104390000120A04008432649C86401230022114699
:1043A000684601F05DFA04EB440000EBC4022048CB
:1043B000843000EB8200811C684600F002FA6846F7
:1043C00000F039FB81B204EB440000EBC402184852
:1043D000843000EB82000181684600F02CFB81B242
:1043E00004EB440000EBC4021148843000EB82006F
:1043F0004181684600F01FFB08B9012100E000215F
:1044000004EB440000EBC4020948843000EB820056
:1044100090F8282061F3410204EB440000EBC40152
:104420000348843000EB810080F82820002018BD6C
:104430004056002011B51248406A20B11048406A29
:1044400040781F2801D0002018BD009800782B2844
:1044500002D1009808300090684600F0ECFAC4B22F
:1044600004F0010080F0010080F00101044880F8B0
:104470008C11C4F3400180F875110120E4E70000BD
:104480004056002013B50C461B48406A20B11A481C
:10449000406A0078162801D000201CBD00980078E2
:1044A0002B2802D10098C01D009000980078222887
:1044B00001D00020F1E71048406A01231522016A6B
:1044C000684601F0CDF90C48406A006A00F1180115
:1044D000684600F06BFA684600F0ADFA0649496A92
:1044E000096A8877684600F0A6FA00B20249496A6C
:1044F000096AC8820120D0E74056002013B50C4657
:104500004648406A50B14548406A0078182805D1AD
:10451000606A18B1D4E90A01814201D300201CBDB0
:10452000009800782B2802D10098C01D00900098B8
:104530000078282801D00020F1E70098401C009066
:10454000684600F078FAC1B2E06A00EB0010626AD7
:1045500002F81010E06A00EB0010626A02EB400003
:10456000411C01231522684601F07AF9684600F0E3
:1045700062FA01B2E06A00EB0010626A02EB4000EE
:10458000C182E06A00EB0010626A02EB400000F1B9
:104590001801684600F00AFA684600F04CFAC1B209
:1045A000E06A00EB0010626A02EB40008177684627
:1045B00000F041FA684600F03EFA684600F03BFA27
:1045C000684600F038FA684600F035FA684600F0B0
:1045D00032FA684600F02FFA684600F02CFAC1B2B1
:1045E000E06A00EB0010626A02EB4000C1776846A7
:1045F00000F021FAC1B2E06A00EB0010626A02EB3F
:10460000400080F82010E06A401CE062206B10B18E
:10461000D4E90B100160012081E700004056002022
:1046200013B50C461A48406A50B11948406A0078E0
:10463000282805D1206A18B1D4E90901814201D3A3
:1046400000201CBD009800782B2802D10098C01DC6
:104650000090A06A00EB400303EBC000226A11182F
:10466000684600F0AEF8A06A00EB400303EBC00020
:10467000226A1044411D684600F098F9A06A401C67
:10468000A062E06A10B1D4E90A1001600120D8E705
:104690004056002013B50C462548406A20B12448F6
:1046A000406A0078222801D000201CBD00980078C4
:1046B0002B2802D10098C01D009000980078222875
:1046C00001D00020F1E71A48406A01231522016A4F
:1046D000684601F0C5F81648406A006A00F1150105
:1046E00001234122684601F0BBF8684600F0A3F9B7
:1046F0000F49496A096A81F85600684600F09BF93B
:104700000B49496A096A81F85700684600F093F935
:104710000749496A096A81F85800684600F08BF930
:104720000349496A096A81F859000120BDE7000080
:10473000405600200246002011680B78222B00D141
:10474000491C0B782C2B00D1491C0B78222B00D153
:10475000491C1EE00B78302B05DB0B78392B02DC73
:104760000B78303B12E00B78612B05DB0B78662B66
:1047700002DC0B78573B09E00B78412B05DB0B780B
:10478000462B02DC0B78373B00E0002303EB0010E4
:10479000491C0B78302B02DB0B78392BDADD0B78D8
:1047A000612B02DB0B78662BD4DD0B78412B02DB0F
:1047B0000B78462BCEDD0B782C2B00D1491C1160D9
:1047C000704778B504460D46206800900098007840
:1047D000222802D10098401C009000202871002659
:1047E0000CE0684600F027F9A855009800782E28BC
:1047F00000D005E0761C0098401C0090042EF0D3F9
:1048000000BF00980078222802D10098401C009038
:1048100000982060012078BDF1B5009800782B2821
:1048200002D10098401D0090684600F004F9C4B21F
:10483000684600F000F90546052C07DA04EB440051
:1048400000EBC401234800EB810000E00020064695
:104850000EB90220F8BD3A210098FBF709FD08B116
:10486000012000E000200746009800783A2825D073
:10487000184910396846FFF7A4FF684600F009F9A7
:10488000014614488438A0F87A1004EB440000EB89
:10489000C401104800EB81018438426FC1F8022046
:1048A00090F87800887104EB440000EBC4010948DB
:1048B00000EB81018438B0F87A000881054884381B
:1048C000856606671FB1012180F86410C566002067
:1048D000C0E70000C456002001B5009808B90020C8
:1048E00008BD009800782B2802D100980B3000906A
:1048F000684600F0A0F8C1B2254880F85410684618
:1049000000F099F8C1B2224880F85510052221A183
:104910000098FBF7CCFC20B900211D4880F8571007
:1049200017E005221DA10098FBF7C1FC20B9012169
:10493000174880F857100CE005221AA10098FBF7E1
:10494000B6FC20B90221124880F8571001E000207F
:10495000C6E70098801D0090684600F06CF8C1B270
:104960000B4880F8561000F158016846FFF729FF00
:10497000684600F08EF801460548A0F85E106846CB
:1049800000F087F801460248A0F860100120A7E770
:10499000405600202254435022000000225544502B
:1049A000220000002253534C2200000038B5054677
:1049B0000C462868009000980078222802D10098C0
:1049C000401C00906846FFF7B5FE20700098401C20
:1049D00000906846FFF7AEFE60700098401C0090A3
:1049E0006846FFF7A7FEA0700098401C009068463C
:1049F000FFF7A0FEE0700098401C00906846FFF7AB
:104A000099FE20710098401C00906846FFF792FEC6
:104A1000607100980078222802D10098401C009014
:104A2000009800782C2802D10098401C0090009833
:104A30002860012038BD30B50246002300241168EB
:104A40000878222800D1491C08782C2800D1491C5C
:104A50000878222800D1491C08782D2801D101248A
:104A6000491C06E00878303803EB830500EB45036A
:104A7000491C0878302802DB08783928F2DD0878EC
:104A80002C2800D1491C11600CB1584230BD184689
:104A9000FCE730B504462046FFF7CDFF85B2284637
:104AA00030BD00002DE9F04786B004460020059097
:104AB00004900390D4F88000022808D120780D28B3
:104AC00005D160780A2802D106B0BDE8F087F9A1C7
:104AD0002046FBF7DEFB08B9012000E0002005902E
:104AE0009DF81400C8B9F5A12046FBF7D2FB20B110
:104AF000F4A12046FBF7CDFB08B9012000E000201F
:104B000004909DF8100040B9F0A12046FBF7C1FBCE
:104B100008B9012000E0002003909DF80C0040B38C
:104B2000EC48406A20B1EB48406A4078012807D041
:104B3000E848406A48B1E748406A4078062804D10E
:104B40000121E44880F82C100BE00021E14880F8B6
:104B50002C10406A28B1002005900120049000200C
:104B60000390DC4991F82C0001F006FC012001F0D3
:104B700047FC20782B287DD104222146D6A0FBF7C4
:104B800096FB18B92046FFF747FEF3E20E22D4A1A8
:104B90002046FBF78CFB28B9012104F10F00FFF739
:104BA000ABFBE7E21122D2A12046FBF780FB28B93C
:104BB000002104F11200FFF79FFBDBE20C22D1A1E0
:104BC0002046FBF774FB20B904F10D00FFF7AAFBA8
:104BD000D0E2C048406A0028D7D0BE48406A50B1F1
:104BE000BC48406A4078192805D10A22C9A120464C
:104BF000FBF75DFB70B1B748406A00285BD0B54851
:104C0000406A4078242856D10922C5A12046FBF7E6
:104C10004EFB80BB607A3A2803D104F10A0002906F
:104C200005E0A07A3A2802D104F10B00029069460F
:104C300002A8FFF7BBFEA748406A60B1A548406ADA
:104C40004078192807D1A3480099C0F86F11BDF822
:104C50000410A0F873119F48406A78B19D48406ADB
:104C6000407824280AD19B480099C0F88611BDF8E5
:104C7000041001E0B2E11EE0A0F88A119548406AF4
:104C8000006AB8B19348406AA0B19248406A41783E
:104C90009048406A18B18F48406A007800E00020D0
:104CA000814207D18B48406A006A00990160BDF8D3
:104CB000041081805EE28748406A50B18548406AAE
:104CC00040781B2805D1072298A12046FBF7EFFA70
:104CD00078B18048406A00287ED07E48406A40789B
:104CE000262879D1062293A12046FBF7E0FA002876
:104CF00072D1002002908146804682467548406A03
:104D000028B17448406A40781B2800D18B4D714807
:104D1000406A30B16F48406A4078262801D1874DFB
:104D20001735002D6FD0A0793A2804D194F807A048
:104D300004F1090706E0E0793A2803D194F808A0C5
:104D400004F10A07BAF1670F0FD0BAF1690F03D067
:104D5000BAF16E0F1DD112E004F10A000290A946CB
:104D60005C48406AD0F8208018E004F10F000290FF
:104D700005F105095748406AD0F824800EE004F197
:104D80000F00029005F10A095248406AD0F82880C5
:104D900004E0002002908146804600BF00BF0298D8
:104DA00088B3029800783A2803D0029800782C281B
:104DB00002D10298401C0290694602A8FFF701FD4B
:104DC0000098C9F800009DF8040089F80400B8F1C3
:104DD000000F18D03F4800E016E0406A98B13D4807
:104DE000406A41783B48406A18B13A48406A0078C6
:104DF00000E00020814206D10098C8F800009DF82C
:104E0000040088F80400B5E13248406A80B13148B6
:104E1000406A407818280BD1062249A12046FBF7AA
:104E200046FA28B92B48416A2046FFF767FBA1E103
:104E30002848406AA8B12748406A4078142810D111
:104E4000062241A12046FBF732FA50B9E01D02903C
:104E500002A8FFF7F0FDC1B21E48406A80F82C108E
:104E600088E11C48406A80B11A48406A4078162898
:104E70000BD1062234A12046FBF719FA28B91548B0
:104E8000416A2046FFF7FEFA74E11248406A80B199
:104E90001048406A407828285ED106222CA120467E
:104EA000FBF705FA28B90B48416A2046FFF7B8FB23
:104EB00060E151E04F4B0D0A000000004552524F97
:104EC000520D0A004641494C0D0A000072656164AA
:104ED000790D0A00405600202B4950440000000084
:104EE0002B5354415F434F4E4E45435445440000BD
:104EF0002B5354415F444953434F4E4E4543544511
:104F0000440000002B444953545F5354415F4950BF
:104F1000000000002B4349505354414D41430000D1
:104F20002B43495041504D41430000002B43495011
:104F3000535441002B43495041500000A0570020DA
:104F40002B43574C415000002B43574A415000001F
:104F50002B43574C49460000FE48406A80B1FD484B
:104F6000406A407822280BD10622FBA12046FBF79D
:104F70009EF928B9F748416A2046FFF78BFBF9E014
:104F8000F448406A70B1F348406A40781F2809D15C
:104F90000722F3A12046FBF78AF918B92046FFF74C
:104FA00049FAE7E0EB48406A0028E8D0E948406A5F
:104FB00040781228E3D10722EBA12046FBF777F9CE
:104FC0000028DCD104F10800029002A8FFF733FDAD
:104FD000C1B2E048406A406A0170CBE02046FBF76E
:104FE00051F9042866D90422E1A12046FBF75FF9B4
:104FF000E0BB0922AFF20011601DFBF758F9E0B9E0
:10500000D44890F8760120F00201891CD14880F83C
:1050100076110F2001F0F4F9CE48406A20B1CD4856
:10502000406A4078142807D00020009003460246CA
:1050300001460190FDF7EAFB9CE00A22CEA1601D2B
:10504000FBF735F998B9C34890F8760120F00201D2
:10505000C04880F8761190F8760120F00101BD4833
:1050600080F87611112001F0CBF983E022E00622CE
:10507000C4A1601DFBF71BF9E8BBB64890F87601A8
:1050800020F00101491CB34880F87611102001F08E
:10509000B7F9B048406A20B1AE48406A4078142859
:1050A00068D0002000900346024601460190FDF7BB
:1050B000ADFB5FE0A748406AE8B1A648406A407887
:1050C000042857D10A22B1A12046FBF7F0F870BBA3
:1050D0004FF0000800250027A9469E49453104F1FC
:1050E0000B00FFF737F9ACA12046FBF7AFF848B14A
:1050F0000020984900E03DE081F8440002250227A5
:105100004FF00109934890F84500A84202DD4FF0A6
:1051100001081CE08F4890F84500A84217D18D483F
:1051200090F84600B84203DD4FF001080FE015E0AB
:10513000884890F84600B84209D1864890F8470060
:1051400040B24FFA89F1884201DB4FF00108B8F113
:10515000000F02D1062001F053F90BE00B2291A1C0
:105160002046FBF7A4F828B97A49483104F10C002D
:10517000FFF7F0F87748406A00281BD07548406A6E
:1051800020B17448406A4078012807D07148406ACD
:1051900088B17048406A407806280CD19DF8140008
:1051A00048B1002005904FF4E1316A48016218309F
:1051B000FCF7AAFF98E16748406A20B16548406A59
:1051C00040782A2807D06348406AE0B36148406AC3
:1051D00040782B2840D100250A2275A12046FBF7F4
:1051E00066F810B90B20051E08D1092273A12046CC
:1051F000FBF75DF830B90A20051E03D06019FFF7F0
:10520000BFF828E09DF8140028B3002021E05149A0
:10521000C96C01228240114009B1012200E0002244
:1052200000EB400101EBC0034A49843101EB8301EB
:1052300091F8283062F3000300EB400101EBC0025B
:105240004449843100E007E001EB820181F8283015
:10525000401C0528DBD347E13E48406A20B13D4869
:10526000406A40782C28A5D03A48406A00286ED081
:105270003848406A40782D2869D19DF8140008B15B
:10528000002005903348406A90F83900F0B30722B7
:1052900021464DA0FBF70BF8C8BB00212D48406A02
:1052A00080F83910012001F0DDFA05909DF8140016
:1052B00000283BD02748406A006A90F8280000F098
:1052C0000100002832D000BF00BF2248406A98B1D8
:1052D0002048406A90F8420070B100211D48406AA1
:1052E00080F842101B48406AC06A28B11949496ACF
:1052F00001F12C00FCF751FF00BF0820154981F88F
:1053000028000021134880F8341001E0A5E00EE0E9
:10531000406A016A0F48C162406A416B0D480163EF
:105320000146496A086A002101F07CF8DCE09DF83A
:10533000100028B90922214625A0FAF7B8FF38B98C
:1053400000210448406A80F83910002046E0B8E0A7
:1053500082E00000405600202B435753415000008C
:105360002B435744484350002B43574D4F4445006F
:105370005749464900000000444953434F4E4E45AB
:1053800043540000474F54204950000041542076B8
:10539000657273696F6E00002D20455350383236A8
:1053A00036202D0053444B2076657273696F6E0072
:1053B0002B43495053544154555300002B434950FB
:1053C000535441544500000053454E44204F4B0078
:1053D00053454E44204641494C00000001F042FA3A
:1053E00004909DF81000B8B3FE48406A006A90F837
:1053F000280000F0010078B300BF00BFF948406A00
:1054000098B1F848406A90F8420070B10021F54820
:10541000406A80F84210F348406AC06A28B1F149F6
:10542000496A01F12C00FCF7B8FE00BF0820ED49E5
:1054300081F828000221EB4880F83410406A016AA4
:10544000E848C162406A416BE64801630146496A27
:10545000086A002100F0E6FF46E09DF8100078B3EE
:1054600000BF00BFDF48406A98B1DE48406A90F84C
:10547000420070B10021DB48406A80F84210D948F0
:10548000406AC06A28B1D749496A01F12C00FCF78B
:1054900084FE00BF0820D34981F828000221D148AA
:1054A00080F83410406A016ACE48C162406A416B9C
:1054B000CC4801630146496A086A002100F0B2FF46
:1054C00012E0C848406A78B1C648406A4078072868
:1054D0000AD19DF8140038B1C248406A016AC14837
:1054E00001621830FCF710FED4F8800014287DD932
:1054F000BDA12046FAF7AAFE061E77D03046FFF778
:10550000EBF9002873D0B74890F8550005286EDAFB
:10551000B44890F8550000EB400101EBC001B148E0
:10552000843000EB8105843890F8540088B395F8F6
:10553000280000F0010060B395F8280020F0010079
:1055400085F828000B20A74981F828000846C56285
:1055500095F82800C0F34001A24880F83010406A56
:1055600030B1A048406A40782E2801D1012100E0E6
:1055700000219C4880F83110002180F83010284626
:1055800000F050FFA86998B305F11800FCF705FE7C
:105590008BE0FFE7934890F8540048BB95F828004B
:1055A00000F0010020BB2F7D2C212846FAF743FE96
:1055B0008C4890F8550068708A4890F8540008B9F3
:1055C000012000E0002095F8281060F3000185F824
:1055D0002810781CC0B207462875824890F85700FA
:1055E00028708048816DC5F8021002E05EE0E3E0BB
:1055F0005BE090F85C00A8717A48B0F85E00288102
:105600007848B0F860006881764890F8560008B98C
:10561000012000E0002095F8281060F3410185F892
:1056200028107048406AF8B16E48406A40782C28CB
:105630001AD195F82800C0F34000A8B16948406A23
:10564000006A18B16748406A006A05606548406AA8
:10565000C06BE8606348406A806B28610121614843
:10566000406A80F8401005E05E48006CE860002069
:105670002861287009205B4981F828000846C56226
:1056800095F82800C0F34001564880F8301095F88E
:105690002800C0F34001534880F83110002128460B
:1056A00000F0C0FE2846FDF717FC85E0D4F8800026
:1056B000092805D94FA12046FAF7C8FD061E09D1D1
:1056C000D4F880000F2863D94DA12046FAF7BEFD1B
:1056D000061E5DD00296002702E00298401E02904E
:1056E0000298A04209D9029810F8010C302804DB76
:1056F000029810F8010C3928EFDD02A8FFF79BF99A
:105700000746052F43D207EB470000EBC70135489A
:10571000843000EB81056F7095F8280000F00100DF
:1057200070B395F8280020F0010085F828000B20C0
:105730002C4981F828000846C56295F82800C0F376
:105740004001284880F83010406A30B12548406A4E
:1057500040782E2801D1012100E00021214880F865
:105760003110002180F83210284600F05BFE1D4801
:10577000406A28B11B48406A40782D2800D100BFFC
:10578000A86918B105F11800FCF707FD00BF13E088
:105790009DF8100080B11348406A68B11148406A12
:1057A00040782C2808D10F48406AC06B20B10D49C1
:1057B000486A0E2100F04EFE9DF8140028B99DF8AD
:1057C000100010B99DF80C0080B300250548406A10
:1057D00068B3044903AB04AA486A05A900F04CFB6E
:1057E000054615E0405600202B4C494E4B5F434F79
:1057F0004E4E3A002C434C4F5345440D0A000000D6
:105800002C434F4E4E454354204641494C0D0A000F
:10581000062D11D09DF8140010B99DF80C0038B178
:1058200000200E49496A087405460CE012E010E0B9
:105830000A48406A057406E00848406A8078401CBF
:105840000649496A8870062D03D00448001DFDF7FB
:105850006BF900BF00BFFFF737B9000040560020CA
:1058600070B505460C461E46296808782C2800D1DC
:10587000491C0878222800D1491C002302B1521E7D
:105880001EE00878222808D148782C280BD04878C8
:105890000D2808D048780A2805D008780D2802D0AD
:1058A00008780A2801D1491C0DE044B1934204D282
:1058B000087804F8010B5B1C01E006B903E0491C01
:1058C00008780028DDD100BF0CB1002020702960CD
:1058D000012070BD2DE9F05F8046894646464F465F
:1058E000FE4890F89001C0F3400010B91020BDE8C8
:1058F000F09F3EE23478761C7F1EF84890F86400F2
:1059000000287DD0F548D0F8800030B1F348D0F8B9
:1059100080000169F148C06F0C54F048C16F491C08
:10592000C167C16E491EC166D0F8800038B1EB482E
:10593000D0F880008168E948C06F081A01E0E748A4
:10594000C06EE649C96E884202D9E448C06E0DE0D7
:10595000E248D0F8800038B1E048D0F88000816893
:10596000DE48C06F081A01E0DC48C06EB84201D9B9
:10597000384622E0D948D0F8800038B1D748D0F86E
:1059800080008168D548C06F081A01E0D348C06E16
:10599000D249C96E884202D9D048C06E0DE0CF48C6
:1059A000D0F8800038B1CD48D0F880008168CB486D
:1059B000C06F081A01E0C948C06E0546CDB1C7489E
:1059C000D0F8800050B1C549D1F880100A69C349A8
:1059D000C96F50182A463146FAF714FC7F1B2E4433
:1059E000BE48C06F4119BD48C167C06E411BBB486E
:1059F000C166BA48C06E68B1B848D0F8800000E00F
:105A00007CE0002879D0B548C16FD0F8800080686C
:105A1000814272D14FF0000AB048D0F880000028CF
:105A200057D0AE48006F416AAC48D0F8800040685B
:105A30000144AA48006F41620720A84981F8280064
:105A40000846D0F880100163016FC1620146086FFB
:105A5000002100F0E7FC8246A049D1F88000FCF765
:105A6000A9FDBAF1010F03D100219C48C0F88010B4
:105A70009A48D0F8800040B39848C06E28B3974841
:105A8000006F90F82800C0F3C000F0B99348C06ED2
:105A900040F2B451884202D29048C06E01E040F218
:105AA000B45083465846FCF7B1FD01468B48C0F818
:105AB0008010D0F8800038B18849B1F87A20D1F848
:105AC00080007431FCF7C0FD03E000218348C0F87A
:105AD00080108248C06E28B900218048C0F880102C
